:020000040800F2
:10000000286100209D0100084518000855140008CB
:1000100041180008E1020008D15500080000000066
:100020000000000000000000000000000F34000885
:10003000D911000800000000E5180008E9340008A4
:10004000B7010008B7010008B7010008B7010008B0
:10005000B7010008B7010008B7010008B7010008A0
:10006000B7010008B7010008B7010008B701000890
:10007000B7010008B7010008B7010008B701000880
:10008000B7010008B7010008B7010008B701000870
:10009000B7010008B7010008B7010008B701000860
:1000A000B7010008B7010008B7010008B701000850
:1000B000B7010008B7010008B7010008B701000840
:1000C000B7010008B7010008B7010008B701000830
:1000D000B7010008D5350008B7010008B7010008CE
:1000E000B7010008B7010008B7010008B701000810
:1000F000B7010008B7010008B7010008B701000800
:10010000B701000835240008B7010008B70100084E
:10011000B7010008B7010008B7010008B7010008DF
:10012000B7010008B7010008B7010008850F0008F3
:10013000B7010008B7010008B7010008B7010008BF
:10014000B7010008B7010008B7010008D51800087A
:10015000B7010008B7010008B7010008B70100089F
:10016000B7010008B7010008B7010008B70100088F
:10017000B7010008B7010008B7010008B70100087F
:10018000B7010008B7010008DFF80CD000F068F8EC
:1001900000480047C95600082861002006488047EB
:1001A00006480047FEE7FEE7FEE7FEE7FEE7FEE75C
:1001B000FEE7FEE7FEE7FEE76D350008890100086F
:1001C0002DE9F05F0546002092469B46884606468C
:1001D000814640241BE0284641464746224600F01F
:1001E0002FF852465B46801A994110D310461946A3
:1001F000224600F016F82D1A67EB01084F462246FA
:100200000120002100F00DF817EB00094E41201EDF
:10021000A4F10104DFDC484631462A464346BDE8E6
:10022000F09F202A04DB203A00FA02F100207047F8
:100230009140C2F1200320FA03F319439040704724
:10024000202A04DB203A21FA02F00021704721FA2B
:1002500002F3D040C2F12002914008431946704792
:10026000064C074D06E0E06840F0010394E8070003
:1002700098471034AC42F6D3FFF78AFF3457000892
:100280005457000870B501EB020410F8015B15F03B
:10029000070301D110F8013B2A1106D110F8012BF8
:1002A00003E010F8016B01F8016B5B1EF9D12B071D
:1002B00005D40023521E0FD401F8013BFAE710F8D1
:1002C000013B02F10202A1EB030303E013F8015B1F
:1002D00001F8015B521EF9D5A142D6D3002070BDB2
:1002E00000BFFEE770B500254FF4803400E0641EC7
:1002F00024B1802002F076F80028F8D014B9032544
:10030000284670BD40F2FF5002F028F82846F8E772
:100310002DE9F041064600274748056801E04648B8
:10032000056815F0450FFAD015F0040F06D0032725
:10033000042002F013F83846BDE8F08115F0010FF3
:1003400005D00127012002F009F83846F4E702F051
:1003500043F8B04202D010273846EDE740F2FF5094
:1003600001F0FCFF002002F05DF80446334804422F
:1003700001D13846E0E714F0004F01D01C20DBE744
:1003800014F0804F01D00920D6E714F0005F01D0AF
:100390000A20D1E714F0805F01D00B20CCE714F0E5
:1003A000006F01D00C20C7E714F0806F01D00D2042
:1003B000C2E714F0807F01D00E20BDE714F4000FD7
:1003C00001D00F20B8E714F4800F01D01020B3E75C
:1003D00014F4001F01D01120AEE714F4801F01D0E7
:1003E0001220A9E714F4002F01D01320A4E714F47D
:1003F000802F01D014209FE714F4003F01D0152076
:100400009AE714F4803F01D0162095E714F4004FCA
:1004100001D0172090E714F4804F01D018208BE70B
:1004200014F4005F01D0192086E714F0080F01D002
:100430001A2081E738467FE7342C014008E0FFFDB1
:1004400070B500250F48046801E00E48046814F0F8
:10045000450FFAD014F0040F05D00325042001F055
:100460007DFF284670BD14F0010F05D00125012045
:1004700001F074FF2846F5E740F2FF5001F06EFFEF
:100480002846EFE7342C014070B500250B4804687E
:1004900001E00A48046814F0450FFAD014F0040F84
:1004A00005D00325042001F059FF284670BD40F215
:1004B000FF5001F053FF2846F8E70000342C0140BC
:1004C0002DE9F04106460F464FF000082248056826
:1004D00001E02148056815F0450FFAD015F0040F2A
:1004E00007D04FF00308042001F038FF4046BDE874
:1004F000F08115F0010F06D04FF00108012001F046
:100500002DFF4046F3E701F067FFB04203D04FF004
:1005100010084046EBE740F2FF5001F01FFF0020BB
:1005200001F080FF044614F4604F03D1200C3880A2
:100530004046DCE714F4005F01D01320D7E714F441
:10054000804F01D01020D2E714F4004F01D00F20CB
:10055000CDE74046CBE70000342C014070B50026C3
:100560004FF480350F48046802E06D1E0D480468A2
:1005700014F0450F01D1002DF7D115B114F0040F7F
:1005800005D00326042001F0E9FE304670BD14F0CA
:10059000400F05D00026402001F0E0FE3046F5E790
:1005A0003046F3E7342C014008B54FF4E06001F029
:1005B00087F925208DF8000000208DF80200012029
:1005C0008DF80300684601F03FF908BD70B5064696
:1005D0000C4604F08000802808D104F07F0000EB76
:1005E000800106F58E7000EBC10507E004F07F0086
:1005F00000EB800106F55D7000EBC10504F07F00A3
:10060000287004F08000C00968702946304604F064
:10061000FBFB002070BD70B506460C4604F0800060
:10062000802808D104F07F0000EB800106F58E7071
:1006300000EBC10505E004EB840106F55D7000EBFD
:10064000C1050020A87004F07F002870E0096870E0
:100650002946304604F0B0FB002070BD70B5054659
:100660000C4604F08000802805D104F07F01284664
:1006700004F0D2FD02E0284604F0A8FD002070BD81
:100680002DE9F04106460D4690461F4605F08000D4
:10069000802808D105F07F0000EB800106F58E7000
:1006A00000EBC10407E005F07F0000EB800106F5D8
:1006B0005D7000EBC10405F07F00207005F0800044
:1006C000C0096070C4F80880E770607808B12078CD
:1006D000E080022F01D1002020712146304604F035
:1006E0001FFB0020BDE8F0812DE9F04105460E46D4
:1006F0001746984606F07F0000EB800105F55D7017
:1007000000EBC104E760C4F814800020A0616070B1
:1007100006F07F002070E878012800D1276120785A
:1007200020B92146284604F01FFA03E02146284656
:1007300004F0CBFB0020BDE8F08108B50022009258
:10074000009A61F30A12009202691268009B1A4330
:1007500003691A6008BD70B506460C4604F08000B7
:10076000802808D104F07F0000EB800106F58E7030
:1007700000EBC10505E004EB840106F55D7000EBBC
:10078000C1050120A87004F07F002870E00968709E
:100790002946304604F067FB002070BD2DE9F0418A
:1007A00007460D461646984605F07F0000EB80018F
:1007B00007F58E7000EBC1040120607005F07F002A
:1007C0002070E66026610020A061C4F814802078C3
:1007D00020B92146384604F0C7F903E021463846DF
:1007E00004F073FB0020BDE8F0811CB504462046F0
:1007F00004F085F9E068C0680090204604F036FDFA
:1008000003280BD10020A0704FF40070A080009846
:1008100020F4705000F51050009009E00120A07005
:100820004020A080009820F4705000F5A050009067
:100830000098E168C86000200190019820F4005001
:1008400000F5005001900198E168486101201CBD4D
:10085000F8B50546002400200090284604F045FD28
:1008600006468FE016F0010F7ED0E1B2284600F078
:1008700015FB00900098C0F3000030B3012000FA8F
:1008800004F72869406BB843296948630020009049
:10089000009820F00100401C009005F1180050F86D
:1008A0002400009981603A480068E1B24268284615
:1008B0009047E878012808D13CB940F21110405D1A
:1008C000042802D1284604F0FAF90098C0F3C000C9
:1008D00060B100200090009820F0080008300090DF
:1008E00005F1180050F82400009981600098C0F3C9
:1008F000001060B100200090009820F0100010302F
:10090000009005F1180050F82400009981600098CB
:10091000C0F3801060B100200090009820F04000EB
:100920004030009005F1180050F8240000998160D3
:100930000098C0F3400060B100200090009820F0C3
:100940000200801C009005F1180050F82400009966
:1009500081600098C0F3C01030B12146284600F0F5
:10096000C9FA0020009000E00AE0009820F0800022
:100970008030009005F1180050F824000099816043
:10098000641C7608002E7FF46DAF0120F8BD0000D6
:10099000680100207CB50446002500200190204617
:1009A00004F0ABFC06466EE016F0010F69D0E9B228
:1009B000204604F0AAFC01900198C0F30000C8B3DF
:1009C00000200190019820F00100401C019004F1EA
:1009D000540050F8250001998160E078012817D172
:1009E00004F1540050F825000069009005EB8501E2
:1009F00004F55D7000EBC10080680099C1F312013D
:100A0000411A05EB850204F55D7000EBC2008161BF
:100A10001F480068E9B2026820469047E078012844
:100A200008D13DB940F21110005D052802D12046E1
:100A300004F045F90198C0F3400060B10020019036
:100A4000019820F00200801C019004F1540050F83D
:100A50002500019981600198C0F3C00088B10C485D
:100A6000006881682046884700200190019820F0A6
:100A700008000830019004F1540050F82500019955
:100A800081606D1C7608002E8ED101207CBD000097
:100A9000680100203EB50446A07A70B1D4F80C017C
:100AA0000090009820F002000090009820F00100D3
:100AB00000900099D4F80C01016000200190019889
:100AC00020F00100401C0190206940680199884392
:100AD00021694860084800688169204688470020ED
:100AE0000290029820F0004000F10040029002982D
:100AF000E168486101203EBD680100207CB50446E4
:100B000000200190019820F0100010300190E06862
:100B1000806901998843E1688861E068006A009013
:100B20000098C0F3030000EB800104F55D7000EB5A
:100B3000C1050098C0F3434007282DD2DFE800F03C
:100B40002C04051D1E2C1F0027E00098C0F30A107E
:100B500090B10098C0F30A122046E96804F0DFFB68
:100B6000E8680099C1F30A110844E860A86900998F
:100B7000C1F30A110844A8610FE00EE00DE008225D
:100B800004F2CC51204604F0CAFBA8690099C1F3D5
:100B90000A110844A86100E000BF00BFE068806956
:100BA00001990843E168886101207CBD38B504469D
:100BB00008480068C16820468847002000900098D7
:100BC00020F00800083000900098E168486101209A
:100BD00038BD0000680100203EB5044600254FF4F2
:100BE0008970055D22480068416920468847206970
:100BF0008068009000200290029820F4006000F5C8
:100C0000006002900298E1684861A07A68B3009899
:100C1000C0F30000012828D140F21510005D012822
:100C200023D1032D21D100200190019820F0010053
:100C3000401C0190D4F80C01006801990843D4F8D5
:100C40000C110860019820F00200801C0190D4F87B
:100C50000C01006801990843D4F80C11086005489C
:100C6000006840F006000349086001203EBD000016
:100C70006801002010ED00E030B587B00446002088
:100C8000029006900590049003900190029820F045
:100C90000100401C02902069406802998843216944
:100CA00048600021204604F0B7FA00250BE0FF2140
:100CB00004F1180050F82500816004F1540050F848
:100CC000250081606D1C6078A842F0D84FF0FF319C
:100CD0002069816106986FF30F00401C069006980A
:100CE00080B200F58030069006992069C1610598B0
:100CF00020F0080008300590059820F00100401C05
:100D00000590059820F00200801C05900599206947
:100D10004161049820F00100401C0490049820F0E8
:100D2000080008300490049820F00200801C049011
:100D3000049920690161206900680390039820F4F8
:100D4000FE600390039920690160204603F0B7FF1D
:100D500000200190019820F4805000F5805001900F
:100D60000198E168486104480068016920468847A5
:100D7000012007B030BD0000680100202DE9F041DE
:100D800006460F463946304604F0DEFA01214FF49C
:100D9000897081550021801C8155002511E005EBEB
:100DA000850106F58E7000EBC1040120607025708E
:100DB000E5800020E0704020A0600020E0606061DD
:100DC0006D1C7078A842EAD8002510E005EB85017B
:100DD00006F55D7000EBC104002060702570E580B1
:100DE000E0704020A0600020E06060616D1C7078C1
:100DF000A842EBD8304603F071FE304603F0A4FC65
:100E00000021304604F00CFB304603F02AFD30464A
:100E100004F0CAF9BDE8F08138B50446002000901E
:100E200007480068C16920468847009820F4801070
:100E300000F5801000900098E1684861012038BDFD
:100E40006801002038B5044600200090074800687B
:100E5000016A20468847009820F4001000F5001031
:100E600000900098E1684861012038BD68010020C9
:100E700038B50446E068406800900098C0F38000F0
:100E800020B105480068816A204688470098E168DB
:100E90004860012038BD00006801002010B50246FE
:100EA000146923691469D4F834C02CFA01F404F0ED
:100EB000010443EAC41302F1180454F82140A46861
:100EC00004EA030010BD000038B504460848006875
:100ED000416A2046884700200090009820F080401A
:100EE00000F1804000900098E1684861012038BD21
:100EF000680100202DE9F84307460E460025002032
:100F0000009006EB860107F58E7000EBC104D4E972
:100F10000501451AA068A84200D2A568E81C4FEA5E
:100F2000900807F1180050F82600806900901BE037
:100F3000D4E90501451AA068A84200D2A568E81CBA
:100F40004FEA9008ABB2F2B23846E16804F08FFA8B
:100F5000E0682844E060A0692844A06107F1180017
:100F600050F8260080690090009880B2404506D96C
:100F7000D4E90510884202D260690028D8D1012046
:100F8000BDE8F88310B501F065FF10BD0246094BBE
:100F90009A4201D2084801E00648103811F0005F7B
:100FA00003D0064B0B40C36002E0044B0B40836050
:100FB0007047000010640240006002407D0F7D0F0A
:100FC00021B1026842F00102026003E0026822F0EF
:100FD0000102026070470000016821F00101016018
:100FE0000021016041608160C16001612121416196
:100FF0004A49884204D13D21484A103A91608CE028
:1010000046491831884205D14FF47461434A103A79
:10101000916082E041493031884205D14FF474112A
:101020003E4A103A916078E03C494831884205D107
:101030004FF07461394A103A91606EE0374960317F
:10104000884204D13649354A103AD16065E03349C7
:101050007831884204D13349304A103AD1605CE09B
:101060002E499031884204D12F492C4A103AD16040
:1010700053E02A49A831884205D14FF03D51274A13
:10108000103AD16049E02949884204D13D21274ADC
:10109000083A116041E025491831884205D14FF4E2
:1010A0007461224A083A116037E0204930318842A1
:1010B00005D14FF474111D4A083A11602DE01B4907
:1010C0004831884205D14FF07461184A083A1160DE
:1010D00023E016496031884204D11149134A121F96
:1010E00011601AE011497831884204D10D490F4A44
:1010F000121F116011E00D499031884204D10A4954
:101100000A4A121F116008E00849A831884204D138
:101110004FF03D51054A121F1160704710600240A8
:101120003D000020400F002000003D2010640240E0
:1011300021B1026842F02002026003E0026822F05E
:1011400020020260704710B511F0800F09D022B163
:10115000436943F08003436103E0436923F0800364
:10116000436180290BD02AB1036801F01E04234398
:10117000036004E0036801F01E04A343036010BD94
:1011800010B500220268134B1A40CC680B68234349
:101190004C6923438C692343CC6923430C6A234362
:1011A0004C6A23438C6A23434C6B23438C6B23434D
:1011B0001A430260426922F00702D1E90B3423434B
:1011C0001A4342610B6943604B6883608B68C3605C
:1011D00010BD00003F801CF0704700002DE9FC416D
:1011E00007460D46002600240020009001900820AC
:1011F0005A49086010204860402088600020C8607C
:101200004FF480600861084601F064F91020FFF790
:101210007FF8044614B12046BDE8FC8150480068C0
:1012200000044E4908603720486040208860002054
:10123000C8604FF480600861084601F04BF9372020
:10124000FFF766F804460CB12046E5E74FF0FF30A3
:101250004449086008204860302088600220C86047
:101260000020086101204861084601F08FF8002045
:101270003A49086033204860402088600020C860F8
:101280004FF480600861084601F024F93320FFF72D
:101290003FF804460CB12046BEE709E04FF40010C9
:1012A00001F0A0F820B101F00FF94DF82600761CEE
:1012B0002D48006840F22A610842EFD0082001F072
:1012C00091F828B1082001F049F804242046A3E74A
:1012D000022001F087F828B1022001F03FF8022433
:1012E000204699E7202001F07DF828B1202001F068
:1012F00035F8062420468FE74FF4007001F072F8AD
:1013000030B14FF4007001F029F80724204683E73C
:1013100040F2FF5001F022F800980006009901F415
:101320007F4140EA0120009901F47F0140EA112049
:10133000009940EA1160686001980006019901F483
:101340007F4140EA0120019901F47F0140EA112028
:10135000019940EA1160286020465DE7780A002084
:10136000140000208C0A0020342C014070B50A467D
:10137000002100238C4600BF3DE0012404FA01F364
:10138000146804EA030C9C4534D104684E0003251C
:10139000B540AC43046014794D00AC4005682C4363
:1013A00004601479012C02D01479022C16D18468BF
:1013B0004E000325B540AC43846054794D00AC40E9
:1013C00085682C438460446801258D40AC434460AB
:1013D000446895798D40ADB22C434460C4684E009A
:1013E0000325B540AC43C460D4794D00AC40C5681A
:1013F0002C43C460491C1029BFD370BD70B50023B5
:101400009C464C07E40E02FA04F3CD1000F12004D0
:1014100054F825404D07EE0E0F25B540AC43CE10D5
:1014200000F1200545F82640CD1000F1200454F8C5
:10143000254044EA030CCD1000F1200444F825C0F7
:1014400070BD0246002013690B4201D0012000E06C
:101450000020704708A100200AE00A5C114B9A8026
:1014600000BF104A128812F0400FFAD0421CD0B2CE
:101470002A28F2D300BFFEE70D0A456E746572207C
:10148000486172644661756C745F48616E646C6536
:10149000722C2053797374656D2048616C742E0D25
:1014A0000A0000000010014000B587B00121084685
:1014B00000F01AFA0121102000F036FA0722092163
:1014C0002248FFF79BFF07220A212048FFF796FFDB
:1014D00000208DF81A0001208DF81B0002208DF8E5
:1014E00018000002059002208DF8190005A9174880
:1014F000FFF73CFF02208DF818004002059005A977
:101500001248FFF733FF4FF4E13001900020ADF8AF
:101510000800ADF80A00ADF80C00ADF810000C2082
:10152000ADF80E0001A90A4802F0C2F8012240F20B
:101530002551074802F097F80121054802F05BF8B1
:101540004021034802F04EF807B000BD0000024001
:101550000010014010B504460D48007B48B90C4806
:10156000806830B10B48007818B901212046FFF798
:10157000F2F881212046FFF7EEF8064800780228AD
:1015800005D11F23024A01212046FFF7ADF810BD07
:10159000B8200020EB00002010B504462B4840681E
:1015A0002B4948602948806888600121204602F064
:1015B00023FB1F2810D125480068264988420BD1FB
:1015C0002248407B012807DC2048807B012803DB80
:1015D0001E48807B10280CDD1C49487B20220521F9
:1015E00000F020FD02201C4908702046FFF7B2FFE2
:1015F0002AE01648417B00F10F02204600F096FADF
:10160000002803DA2046FFF7A5FF1DE01348007805
:10161000022819D011480078012815D00F48007809
:10162000032811D00E480088002806DD0C480288E7
:101630000C49204600F0E0F806E00948008818B997
:101640000021204600F0B8F810BD0000B8200020AE
:10165000D820002055534243EB000020EA00002030
:10166000E8000020B810002070B505460C460C4874
:101670000078022807D181212846FFF76CF8002066
:10168000074908700BE004F08000802807D1044867
:101690000078012803D00121284600F08DF870BDA4
:1016A000EB00002070B504460D4610480078022873
:1016B00004D0032811D0042814D10DE00C48417B3C
:1016C00000F10F02204600F031FA002803DA012170
:1016D000204600F071F806E000BF0021204600F02F
:1016E0006BF800E000BF00BF70BD0000EA00002002
:1016F000B820002070B504460D460D48007810B1A2
:10170000012812D103E02046FFF746FF0EE009480A
:10171000417B00F10F02204600F008FA002803DAAE
:101720000121204600F048F800E000BF00BF70BD76
:10173000EA000020B82000200021014A1170704703
:10174000EA00002010B5044600200C4908700C493E
:1017500008700C4800680168002088470121204675
:10176000FEF77CFF81212046FEF778FF1F23064A03
:1017700001212046FEF7B8FF10BD0000EA0000205E
:10178000EB000020A8000020B820002010B504467F
:101790000020064908700120054908701F23054AEA
:1017A00001212046FEF7A0FF10BD0000EA00002046
:1017B000EB000020B820002070B505460C460A4812
:1017C0000A490860084604730020094908700D237F
:1017D000064A81212846FEF7E1FF1F23054A012121
:1017E0002846FEF781FF70BD55534253D820002094
:1017F000EA000020B820002070B506460D461446C9
:101800000C488068A04202D20A48806800E0204666
:1018100084B209488068001B07498860002008736B
:1018200004200649087023462A4681213046FEF7E7
:10183000B5FF70BDB8200020D8200020EA000020AD
:1018400000BFFEE77047000070B5002100230F22A3
:10185000C47824B3174C246804F4E064C4F5E0644D
:10186000C4F30721C1F10404E3B20A4144789C4067
:10187000E1B28478144021430C07210E0E4C057808
:101880006155047804F01F050124AC4005786D1102
:101890004FF0E02606EB8505C5F8004109E0047825
:1018A00004F01F050124AC40044D0678761145F87C
:1018B000264070BD0CED00E000E400E080E100E0B7
:1018C00002490143024A1160704700000000FA0516
:1018D0000CED00E010B5024802F0FAFA10BD00006D
:1018E000A40A00207047000029B1064A126802438A
:1018F000044B1A6004E0034A12688243014B1A60E9
:10190000704700003038024029B1064A126802438D
:10191000044B1A6004E0034A12688243014B1A60C8
:10192000704700003438024029B1064A1268024369
:10193000044B1A6004E0034A12688243014B1A60A8
:10194000704700004438024029B1064A1268024339
:10195000044B1A6004E0034A12688243014B1A6088
:101960007047000024380240F0B500210022002416
:1019700002258C460223304E366806F00C0121B158
:10198000042905D0082933D105E02C4E066032E049
:101990002B4E06602FE0284E361F3668C6F3805C5B
:1019A000254E361F366806F03F03BCF1000F0AD003
:1019B000234EB6FBF3F6204F3F1F3F68C7F388174F
:1019C00006FB07F409E01D4EB6FBF3F61A4F3F1F66
:1019D0003F68C7F3881706FB07F4174E361F3668B3
:1019E000C6F30146761C7500B4FBF5F6066002E00E
:1019F000124E066000BF00BF0F4E366806F0F001C1
:101A00000909104E725C0668D64046600A4E366878
:101A100006F4E051890A0B4E725C4668D640866037
:101A2000054E366806F46041490B064E725C466806
:101A3000D640C660F0BD0000083802400024F40023
:101A400040787D012800002070B506460C461546FA
:101A5000601907490968884207D9212205213046C3
:101A600000F0E0FA4FF0FF3070BD0020FCE700000E
:101A7000D800002010B584460A46507810F0010FB7
:101A800002D00E4B07210CE00D480068C0690CEB3A
:101A9000CC0400EB84031879411D1079884200DCE6
:101AA00011790848018004E0481E81B2585C064C58
:101AB00060540029F8D1002010BD00001C57000818
:101AC000A8000020E8000020B810002010B5024651
:101AD0000B4608210648018005E0481E81B20548F2
:101AE000405C054C60540029F7D1002010BD000077
:101AF000E80000202B570008B810002010B502465F
:101B00000B4608210648018005E0481E81B20548C1
:101B1000405C054C60540029F7D1002010BD000046
:101B2000E800002023570008B810002070B50546D3
:101B30000E46144632480560207823283ED00DDC3E
:101B40001A2831D005DCB0B1032819D012284ED1A3
:101B50001BE01B281ED01E2849D120E02A283CD09B
:101B600004DC25282FD0282841D131E02F2839D076
:101B70005A283CD11DE02146304600F079FA70BD6C
:101B80002146304600F002FAF9E721463046FFF7D9
:101B900071FFF4E72146304600F062FAEFE7214694
:101BA000304600F05DFAEAE721463046FFF7A6FF2F
:101BB000E5E721463046FFF789FFE0E7214630465A
:101BC00000F0A0F9DBE72146304600F055F9D6E7F2
:101BD0002146304600F0D8F8D1E72146304600F0E3
:101BE00097FACCE72146304600F06AFAC7E7202290
:101BF0000521304600F016FA4FF0FF30BFE7000035
:101C0000E40000202DE9F041074624480068B0F5C3
:101C1000805F02D22148006801E04FF48050044602
:101C20001F480068B4FBF0F085B21E4800681C49EC
:101C30000968B0FBF1F61C4800682B4632461B4988
:101C4000D0F810C03846E047002808DA11220421F5
:101C5000384600F0E7F94FF0FF30BDE8F081234649
:101C6000124A812112480068FEF798FD0D4800686D
:101C700020440C49086009480068001B07490860B7
:101C80000C488068001B0B4988600448006810B944
:101C90000320094908700020DFE70000E000002071
:101CA000D4000020DC000020A8000020B810002094
:101CB000E4000020D8200020EA0000202DE9F041B7
:101CC00007462A480068B0F5805F02D227480068BE
:101CD00001E04FF48050044625480068B4FBF0F062
:101CE00085B22448006822490968B0FBF1F6224811
:101CF00000682B4632462149D0F814C03846E047E8
:101D0000002808DA03220421384600F08BF94FF04E
:101D1000FF30BDE8F081174800682044154908608D
:101D200012480068001B1149086015488068001BB4
:101D3000134988600D48006828B9002111480068DF
:101D4000FFF73AFD10E009480068B0F5805F02D265
:101D50000648006801E04FF4805083B2074A012131
:101D600008480068FEF7C0FC0020D2E7E000002031
:101D7000D4000020DC000020A8000020B8100020C3
:101D8000D8200020E400002070B505460C463348FA
:101D9000007800285AD13248007B00F0800080286B
:101DA00008D02F49487B2022052100F03BF94FF055
:101DB000FF3070BD2B48006881682846884738B1DD
:101DC0003A220221284600F02DF94FF0FF30F0E7CB
:101DD000A0780006E17840EA0140217940EA01203C
:101DE0006179084320490860207AE17940EA0120BE
:101DF0001E4908600846006882B21B4801682846F0
:101E0000FFF722FE002802DA4FF0FF30D1E7022070
:101E10001249087014480068154909684843124976
:101E20000860124800681249096848430F49086071
:101E30000B4880680968884208D00949487B2022FD
:101E4000052100F0EFF84FF0FF30B2E74FF480507B
:101E5000084908802846FFF7D5FEAAE7EA000020D7
:101E6000B8200020A8000020DC000020E0000020B6
:101E7000D4000020E800002070B504460D461C4840
:101E800000681C4A1C4943682046984738B13A22EA
:101E90000221204600F0C6F84FF0FF3070BD164812
:101EA0000068401E000E1549087013480068401E67
:101EB000000C487010480068401E000A88700E48E8
:101EC0000068401EC8700B480068000E0871094881
:101ED0000068000C487107480068000A88710548CE
:101EE0000068C8710820064908800020D6E7000075
:101EF000A8000020D4000020D8000020B810002046
:101F0000E80000207CB505460E46002404E00020D1
:101F10001B490855601C84B20C2CF8DB194800687A
:101F200001AA694643682846984738B13A220221F7
:101F3000284600F077F84FF0FF307CBD08201049AC
:101F4000C8700098401E000E08710098401E000CDA
:101F500048710098401E000A88710098401EC871A0
:101F6000022008720198000C48720198000A8872D9
:101F70000198C8720C20044908800020DDE70000A9
:101F8000B8100020A8000020E800002010B503468B
:101F9000002204E000201E4CA054501CC2B2122AA1
:101FA000F8DB70201A4C20700C20E0711948007882
:101FB000194C2478A04221D01848164C247810F8E7
:101FC0003400134CA0701548124C247800EBC40068
:101FD00040790F4C207311480E4C247800EBC4005C
:101FE00000790B4C60730B480078401C094C207042
:101FF00020460078042801D1002020701220084CCF
:1020000020800879122801DC08792080002010BD8A
:10201000B8100020D0000020D1000020981000202F
:10202000E800002030B50C4B0C4C247803F8341039
:102030001302094C094D2D7804EBC5046360074B6E
:102040001B785B1C054C237023461B78042B01D1A5
:102050000023237030BD000098100020D100002024
:1020600002460020014B188070470000E800002065
:1020700070B504460D460F48806840B10D49487B55
:1020800020220521FFF7CEFF4FF0FF3070BD0A4838
:10209000006881682046884738B13A2202212046EC
:1020A000FFF7C0FF4FF0FF30F0E700200349088042
:1020B00000BFEBE7B8200020A8000020E8000020C7
:1020C00070B505460C46607800F00200022807D182
:1020D000242205212846FFF7A5FF4FF0FF3070BDF1
:1020E0000848006882B2084801682846FFF7ACFC3F
:1020F000002802DA4FF0FF30F1E7002003490880A2
:1021000000BFECE7E0000020DC000020E800002039
:1021100070B505460C464348007800287BD14248FC
:10212000007B00F08000802808D13F49487B2022B6
:102130000521FFF777FF4FF0FF3070BD3B48006887
:1021400081682846884738B13A2202212846FFF79D
:1021500069FF4FF0FF30F0E734480068C168284657
:10216000884738B1272202212846FFF75BFF4FF04E
:10217000FF30E2E7A0780006E17840EA01402179EB
:1021800040EA01206179084329490860207AE17911
:1021900040EA0120274908600846006882B22448C6
:1021A00001682846FFF750FC002802DA4FF0FF30A4
:1021B000C3E71F4800682049096848431C49086074
:1021C0001C4800681C49096848431A4908601648B9
:1021D00080680968884208D01349487B202205217D
:1021E000FFF720FF4FF0FF30A7E701200D490870EF
:1021F00010480068B0F5805F03D20E48006802E026
:1022000009E04FF4805083B20C4A01210C48006869
:10221000FEF76AFA03E02846FFF750FD8DE700203D
:102220008BE70000EA000020B8200020A800002072
:10223000DC000020E0000020D4000020B8100020C6
:10224000E40000207CB505460024002000900190A9
:1022500000F0E8F810F0007F02D00E2420467CBD8C
:1022600069463C48006880B2FEF7B8FF04460CB1EE
:102270002046F4E7012D35D1019810F4802F2ED09F
:102280003448006800043449086037204860402022
:1022900088600020C860A8020861084600F01AF9AA
:1022A0003720FEF735F804460CB12046D7E7022068
:1022B0002949086006204860402088600020C860E6
:1022C0004FF480600861084600F004F90620FEF72C
:1022D0001FF804460CB12046C1E72046BFE725247D
:1022E0002046BCE7019810F4803F2FD019480068C1
:1022F00000041949086037204860402088600020A9
:10230000C8604FF480600861084600F0E3F83720A9
:10231000FDF7FEFF04460CB12046A0E700200E4961
:10232000086006204860402088600020C8604FF4A4
:1023300080600861084600F0CDF80620FDF7E8FF50
:1023400004460CB120468AE7204688E7252420462B
:1023500085E7000014000020780A00200149086089
:1023600070470000382C01400149086070470000A8
:10237000382C01400149086070470000A0802542C8
:1023800001490860704700008C85254200210B4BF5
:1023900002681A601B1D42681A601A1D116821F03C
:1023A000F701D0E902231A4303691A4343691A4328
:1023B0001143024A0832116070470000242C01408A
:1023C00010B50121C802FFF7BFFA00214FF40060E9
:1023D000FFF7BAFA10BD000001480068C0B27047AC
:1023E000102C014001460020034A12680A4201D025
:1023F000012000E000207047342C014001460020FD
:10240000034A12680A4201D0012000E00020704710
:10241000342C01400248006800F0030070470000BF
:10242000002C01400146002201480A18106870473C
:10243000142C014010B500F021FD10BD29B1064A51
:1024400012680243044B1A6004E0034A1268824394
:10245000014B1A60704700003C2C014000210A4AE1
:10246000116847F6FF629143027D83681A4343680F
:102470001A43C3681A4303681A4303691A43114392
:10248000014A116070470000042C014008B54FF468
:10249000C060FFF715FA31208DF8000000208DF89C
:1024A00001008DF8020001208DF803006846FFF757
:1024B000CBF93B208DF8000001208DF80100684623
:1024C000FFF7C2F908BD000001480068704700002E
:1024D000802C01400021094B02681A601A1D116806
:1024E0006FF30A01D0E901231A43C3681A43036951
:1024F0001A431143014A121D11607047082C014014
:102500000149086070470000002C014010B501240B
:1025100008210348FEF795FF00B10024204610BDB6
:10252000000C024070B504460025204800680328CE
:1025300002D12725284670BD1C48006838B11B48C9
:102540000068012803D01948006802282CD1B4F58E
:10255000805F02D127252846EDE7B4F5006F13D13F
:102560000120FFF76FFE0546F5B9002010490875F8
:102570000860486088604FF40060C860002008610F
:102580000846FFF76BFF0FE00020FFF75BFE0546F4
:1025900055B9002006490875086048608860C86021
:1025A00008610846FFF75AFF2846C4E710000020DC
:1025B000600A0020F0B5014600200022CC4B1B68C9
:1025C00081F85630CB4B1B68A1F85430CA4B1B68BE
:1025D0001A0E93090B70C2F383034B7002F00303CE
:1025E0008B70C54B1B68C3F30742CA70C24B1B6894
:1025F000C3F307220A71C04B1B68DAB24A71BE4BA3
:102600005B681A0E1301CB80BB4B5B68C3F30742B8
:10261000CB8843EA1213CB8002F00F030B72B64B48
:102620005B68C3F30722D3094B72C2F380138B722A
:10263000C2F34013CB72C2F300130B7300234B732E
:10264000AB4B1B681BB1AA4B1B68012B50D19307E6
:102650001B0D0B61A84B5B68DAB20B6943EA82037E
:102660000B61A54B9B681A0E0B6943EA92130B6131
:10267000C2F3C2030B7502F007034B759E4B9B68B8
:10268000C3F3074253098B75C2F38203CB759307DB
:102690005B0F0B76984B9B68C3F307220B7E43EAD4
:1026A000D2130B760B695B1C0024C1E912340B7E3C
:1026B000D1E912649B1C012505FA03F3DD17A6FB83
:1026C000037C04FB03C306FB0533C1E912730C7AD8
:1026D0000123A3400B650025D1E912460B6DA4FB35
:1026E000037C06FB03C304FB0533C1E912732EE030
:1026F0007F4B1B68022B2AD17F4B5B68DAB29306B3
:102700009B0A0B617C4B9B681A0E0B6943EA022300
:102710000B61794B9B68C3F307420B6913430B6151
:10272000754B9B68C3F307220B695B1C4FF4007465
:10273000A3FB046564000027A6FB043C05FB04C45E
:1027400006FB0744C1E912344FF400730B65C2F372
:10275000801301F8193F93065B0E4B70664B9B6824
:10276000DAB24B7843EAD2134B7002F07F038B70DE
:10277000614BDB681A0ED309CB70C2F341130B71A6
:10278000C2F382034B7193071B0F8B715A4BDB68AB
:10279000C3F307428B7943EA92138B71C2F3401360
:1027A000CB7100230B7202F001034B72524BDB68BA
:1027B000C3F30722D3098B72C2F38013CB72C2F327
:1027C00040130B73C2F300134B73C2F381038B737B
:1027D00002F00303CB73484BDB68DAB253080B7487
:1027E00001234B74454B1B681A0ECA74A1F11901E1
:1027F000424B1B68C3F307424FEA0224CC853F4B90
:102800001B68C3F30722CB8D43EA0203CB853B4B06
:102810001B68DAB24FEA02640C63384B5B684FEA1C
:1028200013620B6B43EA02440C63344B5B68C3F3E3
:1028300007420B6B43EA02240C63304B5B68C3F323
:1028400007220B6B43EA02030B632C4B5B68DAB283
:102850004FF034035A54294B9B684FEA13624FF0F0
:1028600035035A54254B9B68C3F307424FEA026471
:102870008C63224B9B68C3F307228B6B43EA0244B1
:102880008C631E4B9B68DAB28B6B43EA02248C6329
:102890001A4BDB684FEA13628B6B43EA02038B63CC
:1028A000164BDB68C3F307424FF03C035B5C43EA23
:1028B00012144FF03C035C544FEA02734FEA135476
:1028C000CC870E4BDB68C3F30722CB8F43EA0203AE
:1028D000CB870A4BDB68DAB24FEA52044FF0400371
:1028E0005C544FF001044FF041035C54F0BD000014
:1028F0001000002014000020D8090020E809002062
:1029000008B500200090FFF701FE012809D16846B4
:1029100000F098FB08B1FF2008BD0098C0F34320E9
:10292000FAE7FF20F8E710B50424FFF7E9FF0446B3
:10293000042C01D1002010BDFF2C01D10220FAE7A8
:102940000120F8E710B50024FFF7A0FD00F05EF9C4
:10295000FFF736FD00F0BAF904460CB1204610BD71
:1029600000F028F804460CB12046F8E700200F4993
:102970000875086048608860C86008610846FFF70D
:102980006DFD0B48FFF716FE044634B90849B1F84F
:102990005410080400F03CFB044624B94FF40060D6
:1029A000FFF7C0FD04462046D9E70000600A00207A
:1029B000080A002038B5002401200090FFF72AFD06
:1029C00010B92524204638BD44480068042828D082
:1029D00000204349086002204860C0208860002031
:1029E000C8604FF4806008610846FFF773FDFDF78B
:1029F00027FD04460CB12046E5E70020FFF712FD55
:102A0000384908600420FFF70DFD3649486008206A
:102A1000FFF708FD334988600C20FFF703FD3149BB
:102A2000C8602E48006858B12C480068012807D0BB
:102A30002A480068062803D028480068022816D1D2
:102A4000002027490860032048604020886000205B
:102A5000C8604FF4806008610846FFF73BFD694697
:102A60000320FDF72DFD04460CB12046ABE71B48C3
:102A7000006804282ED0BDF800001B490860BDF88E
:102A8000000000041649086009204860C0208860E2
:102A90000020C8604FF4806008610846FFF71AFD07
:102AA000FDF7CEFC04460CB120468CE70020FFF772
:102AB000B9FC0E4908600420FFF7B4FC0B494860DC
:102AC0000820FFF7AFFC094988600C20FFF7AAFC3B
:102AD0000649C8600024204675E700001000002069
:102AE000780A0020E809002014000020D8090020FE
:102AF00030B58FB004460D464FF0FA511D48FEF731
:102B000045FA00211B48FEF75BFA1A48FEF764FA03
:102B10004FF000600090184801900294002003904C
:102B2000049005904FF4806006908000079080002C
:102B30000890002009904FF440300A9004200B9038
:102B400003200C904FF400000D9080100E90694609
:102B50000848FEF715FB012210210648FEF7F3FA9C
:102B600020210448FEF7E4FA01210248FEF728FA82
:102B70000FB030BD58640240802C014030B58FB09A
:102B800004460D464FF0FA511E48FEF7FFF90021AA
:102B90001C48FEF715FA1B48FEF71EFA4FF00060BE
:102BA0000090194801900294402003900020049066
:102BB00005904FF480600690800007908000089098
:102BC000002009904FF440300A9004200B9003201D
:102BD0000C904FF400000D9080100E90694609484B
:102BE000FEF7CEFA012210210648FEF7ACFA2021AA
:102BF0000448FEF79DFA01210248FEF7E1F90FB003
:102C000030BD000058640240802C01401CB50121F9
:102C10000C20FEF769FE0C2208212A48FEF7EEFB85
:102C20000C2209212748FEF7E9FB0C220A2125483E
:102C3000FEF7E4FB0C220B212248FEF7DFFB0C22FF
:102C400011462048FEF7DAFB0C2202211E48FEF74F
:102C5000D5FB4FF47060009001208DF80500022034
:102C60008DF8040000208DF8060001208DF8070083
:102C700069461448FEF77AFB042000906946124822
:102C8000FEF774FB4FF48050009000208DF8070091
:102C900069460C48FEF76AFB0820009000208DF87A
:102CA000040001208DF8070069460748FEF75EFB27
:102CB0000121C802FEF738FE01218805FEF714FE47
:102CC0001CBD000000080240000C02402DE9F0414C
:102CD0000024002600250027A046762059490875C3
:102CE0000020086048608860C86008610846FFF7F7
:102CF000B5FB0320FFF704FC0120FFF73BFB00209E
:102D00005149086048608860C8604FF4806008617D
:102D10000846FFF7DFFBFDF7E5FA044614B120464D
:102D2000BDE8F0814FF4D57047490860082048603D
:102D3000402088600020C8604FF480600861084629
:102D4000FFF7C8FBFDF70AFC04462CB901203F49F8
:102D500008604FF0804812E000203B4908603720AF
:102D60004860402088600020C8604FF4806008619F
:102D70000846FFF7AFFB3720FDF7CAFA04460020EC
:102D80003149086037204860402088600020C860D2
:102D90004FF4806008610846FFF79CFB3720FDF781
:102DA000B7FA0446002C4AD136E0002026490860D4
:102DB00037204860402088600020C8604FF4806061
:102DC00008610846FFF786FB3720FDF7A1FA0446A5
:102DD0000CB12046A4E71E4848EA00001A490860E2
:102DE00029204860402088600020C8604FF480603F
:102DF00008610846FFF76EFBFDF746FB04460CB181
:102E000020468DE70020FFF70DFB0646012080EAF3
:102E1000D67080F001076D1C1FB94FF6FF70854218
:102E2000C3D34FF6FF70854202D31B24204677E7B9
:102E300006F08040060002D00220044908602046C7
:102E40006EE70000600A0020780A002010000020D1
:102E50000000108010B50748006810F0C05F08D06F
:102E60000120054908604FF0C25102485830FEF772
:102E70008DF810BD006402402400002010B54FF40E
:102E80008070FFF7BBFA50B10020254908704FF45D
:102E90008070FFF769FA01202249086037E00220BC
:102EA000FFF7ACFA30B10220FFF75EFA02201C49AE
:102EB00008702CE00820FFF7A1FA30B10820FFF7D6
:102EC00053FA04201649087021E02020FFF796FAF3
:102ED00030B12020FFF748FA06201149087016E0AB
:102EE0001020FFF78BFA30B11020FFF73DFA0520D4
:102EF0000B4908700BE04FF40070FFF77FFA30B118
:102F00004FF40070FFF730FA0720054908700021E0
:102F10004CF23A30FFF792FA0148007810BD0000F9
:102F20001C000020200000202DE9F04180460D46C5
:102F300014461E46002700202E4908702E490860BE
:102F400001202E49086000202D4908602D480068A6
:102F5000022801D104026D0A2B48046010202A497E
:102F60004860402088600020C8604FF4806008619D
:102F70000846FFF7AFFA1020FDF7CAF9074617B168
:102F80003846BDE8F0814FF0FF302049086006FB6D
:102F900004F04860902088600220C860002008612A
:102FA000012048610846FFF7F1F917480560122033
:102FB00015494860402088600020C8604FF4806058
:102FC00008610846FFF786FA1220FDF7A1F90746C7
:102FD0000FB13846D5E7012140F22A30FFF72EFA2B
:102FE0000120FFF7CDF906FB04F14046FFF780FD15
:102FF0003846C6E71C0000202000002018000020F2
:103000002C2C014010000020780A00208C0A00209F
:1030100070B5044600250A48046007200849486046
:10302000402088600020C8604FF480600861084636
:10303000FFF750FA0720FDF76BF90546284670BDEB
:10304000780A002070B50446002514B926252846C4
:1030500070BD0F48006800040E4908600D204860EC
:10306000402088600020C8604FF4806008610846F6
:10307000FFF730FA0D20FDF74BF905460DB1284654
:10308000E6E70020FFF7CEF920602846E0E70000E1
:1030900014000020780A002010B5002400200A49FE
:1030A00008600C204860402088600020C8604FF411
:1030B000806008610846FFF70DFA0C20FDF728F93B
:1030C0000446204610BD0000780A002070B5002597
:1030D0006C1E00E0641E1848006838B91748006884
:1030E00020B91748007808B9002CF3D10020124904
:1030F0000860441E00E0641E1248006810F4005F7F
:1031000001D0002CF7D110480068012805D1FFF745
:10311000C3FF054600200C4908600CB905B9042519
:1031200040F2FF50FFF71AF90548007810B1044843
:10313000007870BD2846FCE7240000202000002015
:103140001C000020342C01401800002070B5002520
:103150006C1E00E0641E1848006838B91748006803
:1031600020B91748007808B9002CF3D10020124983
:103170000860441E00E0641E1248006810F4805F7E
:1031800001D0002CF7D110480068012805D1FFF7C5
:1031900083FF054600200C4908600CB905B90425D9
:1031A00040F2FF50FFF7DAF80548007810B1044804
:1031B000007870BD2846FCE7240000202000002095
:1031C0001C000020342C0140180000202DE9F041A3
:1031D00080460F4615461E460024002045490870CB
:1031E00045490860012045490860002044490860BD
:1031F00044480068022801D105027F0A4248056060
:10320000102041494860402088600020C8604FF489
:10321000806008610846FFF75DF91020FDF778F837
:10322000044614B12046BDE8F08138480068000427
:103230003549086037204860402088600020C86019
:103240004FF4806008610846FFF744F93720FDF726
:103250005FF804460CB12046E5E72B4806601720CE
:1032600029494860402088600020C8604FF4806091
:1032700008610846FFF72EF91720FDF749F80446C4
:103280000CB12046CFE72048076019201E4948604E
:10329000402088600020C8604FF4806008610846C4
:1032A000FFF718F91920FDF733F804460CB1204652
:1032B000B9E74FF0FF301649086006FB05F048609B
:1032C000902088600020C86008610120486108469D
:1032D000FFF75CF8012140F22A30FFF7AFF8012038
:1032E000FFF74EF806FB05F14046FFF747FC204686
:1032F00099E700001C00002020000020180000209A
:103300002C2C014010000020780A0020140000201E
:103310008C0A00202DE9F04180460C461546FFF747
:1033200002FB18B14FF0FF30BDE8F0814FF40070A0
:10333000286006484FF400720023D0E9126130463D
:10334000FCF73EFF20600020EEE70000080A0020A6
:103350000020704710B50446FFF7F4FA10B14FF0A3
:10336000FF3010BD0020FCE710B504460A4890F974
:103370000000002804DAFFF7E5FA0020064908708B
:10338000FFF7D1FA28B1FF20034908704FF0FF3052
:1033900010BD0020FCE70000B00000200146002026
:1033A00070472DE9F04107460C4615461E46690256
:1033B00033464FF400722046FFF7B6FD18B14FF0C8
:1033C000FF30BDE8F081FFF781FE00BFFFF7ABFAE9
:1033D0000028FBD100BFF4E72DE9F04107460C4679
:1033E00015461E46690233464FF400722046FFF729
:1033F000EDFE18B14FF0FF30BDE8F081FFF7A6FEFB
:1034000000BFFFF790FA0028FBD100BFF4E7704738
:1034100000210020304A126842F480322E4B1A609C
:1034200000BF2D4A126802F40030491C10B9B1F5F2
:10343000A06FF6D1284A126812F4003F01D0012093
:1034400000E00020012845D1234A4032126842F0B2
:103450008052214B40331A60204A126842F4804265
:103460001E4B1A601C4A083212681B4B08331A6044
:103470001A46126842F400421A601A46126842F470
:10348000A0521A60164A1B1F1A601A1F126842F0D7
:1034900080721B1F1A6000BF0F4A126812F0007F73
:1034A000FAD040F205620F4B1A600B4A08321268DC
:1034B00022F00302084B08331A601A46126842F0E1
:1034C00002021A6000BF044A0832126802F00C02BD
:1034D000082AF8D170470000003802400070004010
:1034E00019544007003C024010B500F001F810BD2F
:1034F00010B51948006840B117480068401E1649C9
:10350000086002D1012015490870002408E004EB8E
:103510004401134A02EB810002F0C8F8601CC4B2F7
:10352000042CF4DB0F480068401C0E490860084674
:1035300000686FF00041884202D10020094908600C
:1035400009480078401CC0B2074908700A2801DB0E
:103550000020087010BD00000000002004000020C2
:1035600080010020080000200C00002010B5154844
:10357000006840F47000134908601348006840F088
:1035800001001149086000200F49083108600E4809
:1035900000680E4908400C4908600D48091D086084
:1035A000081F006820F48020091F086000200649D9
:1035B0000C310860FFF72CFF4FF0006001498039A3
:1035C000086010BD88ED00E000380240FFFFF6FE05
:1035D0001030002410B5024801F069FF10BD000052
:1035E000B001002001F40072B2F5007F00D100BFED
:1035F000CA430280704721B1828942F4005282811D
:1036000004E082894DF6FF731A408281704730B51D
:103610000246002400239C460020A1F510656A3D67
:1036200000D100BFC1F3421C01F01F03012505FAC0
:1036300003F3BCF1010F02D195892B4007E0BCF1E7
:10364000020F02D1158A2B4001E0958A2B400C1203
:10365000012505FA04F415882C4013B10CB10120A2
:1036600000E0002030BD70B503460024A4460025CC
:103670000020A1F510666A3E00D100BF1846C1F3D4
:10368000421401F01F0C012606FA0CF5012C01D1A1
:103690000C3004E0022C01D1103000E014301AB1DB
:1036A00006682E43066002E00668AE43066070BD01
:1036B0002DE9FF4705460E460024A14600BFA0465F
:1036C000B08900B100BF2C8A24F44054F088044330
:1036D0002C82AC8941F20C608443B0883189084364
:1036E000718908430443AC81AC8A24F44074B089E6
:1036F0000443AC826846FEF737F92048854202D081
:103700001F48854202D1DDF80C9001E0DDF80890F9
:10371000A88910F4004F08D009EBC90000EB09108C
:1037200031684900B0FBF1F707E009EBC90000EB95
:10373000091031688900B0FBF1F76420B7FBF0F0A5
:1037400004012009642101FB1078A88910F4004FBE
:1037500008D0322000EBC800B0FBF1F000F0070009
:10376000044308E0322000EB08106421B0FBF1F0C4
:1037700000F00F0004432C81BDE8FF8700100140DA
:103780000014014001468888C0F308007047C1F367
:1037900008028280704770B504460D46D4F8E405EF
:1037A0002946426820469047002070BD70B5044607
:1037B0000D464FF48970005D022802D0032812D113
:1037C00000E000BF688801280CD100214FF48C7004
:1037D0000151D4F8E40529468268204690472046E6
:1037E00000F05EF804E02946204600F021F800BF12
:1037F00000BF70BD2DE9F04106460C461546002776
:103800002B46224600213046FCF76EFF3846BDE8C5
:10381000F0812DE9F04106460C46154600272B465F
:10382000224600213046FCF7B9FF3846BDE8F0815A
:1038300070B504460D4680212046FCF78CFF002120
:103840002046FCF788FF204601F039FA70BD70B5BC
:1038500004460025052140F21110015500231A46A7
:1038600019462046FCF740FF204601F028FA28467A
:1038700070BD2DE9F04104460E4615460027C4F8F8
:103880003C51C4F83851022140F2111001552B4629
:10389000324600212046FCF781FF3846BDE8F08122
:1038A00070B504460025042140F211100155002393
:1038B0001A4619462046FCF771FF204601F0FFF931
:1038C000284670BD70B505460E46002E51D105F54F
:1038D0008E7440F21110405D02283DD1A168E0696C
:1038E000884211D9A168E069401AE061E8780128AE
:1038F00003D1D4E902100844E060E06982B22846AE
:10390000E168FFF786FF27E0A168206AB0FBF1F2CB
:1039100001FB120078B9A168206A88420BD3D4E970
:103920000801884207D2002211462846FFF771FF9E
:103930000020606210E0D5F8E405C06848B14FF49B
:103940008970405D032804D1D5F8E405C168284694
:1039500088472846FFF77BFF4FF48B70405D0128B6
:1039600016D1284600F080FB00214FF48B704155A2
:103970000EE0D5F8E405406950B14FF48970405D20
:10398000032805D1D5F8E405314642692846904719
:10399000002070BD70B505460E46A6BB05F55D74EA
:1039A00040F21110405D03283DD1A168E0698842D2
:1039B00017D9A168E069401AE061E878012803D1CD
:1039C000D4E902100844E060A368E069984201D29B
:1039D000E06900E0A06882B22846E168FFF70AFFCC
:1039E00021E0D5F8E405006948B14FF48970405DE5
:1039F000032804D1D5F8E4050169284688472846FC
:103A0000FFF74EFF0FE0FFE7D5F8E405806950B1FE
:103A10004FF48970405D032805D1D5F8E40531469F
:103A2000826928469047002070BD014600207047FB
:103A300010B50446D4F8E81548698047012140F2E2
:103A400015100155002010BD10B50446D4F8E81536
:103A500088698047D4F8E4050021426820469047F1
:103A6000002140F215100155002010BD70B504462C
:103A70000D46E888012804D029462046FFF7D8FEE5
:103A80001AE04FF48970005D022802D003280DD19E
:103A900005E0012209492046FFF7EBFE0BE0012279
:103AA00004F588712046FFF7E4FE04E0294620462D
:103AB000FFF7BEFE00BF00BF70BD00007401002014
:103AC000F8B504460E467088001208286DD2DFE86B
:103AD00000F06C0416226C6C6267A078D4F8EC15C8
:103AE0000A68694690470546F088402804D04FF49C
:103AF0008970005D012801D1082000905AE0A0786B
:103B0000D4F8E4158A6A694690470546022169702F
:103B1000C4F8F0554EE07088C0B2062834D2DFE811
:103B200000F0030B131B232BA078D4F8EC154A6884
:103B30006946904705462CE0A078D4F8EC158A68D1
:103B400069469047054624E0A078D4F8EC15CA6889
:103B50006946904705461CE0A078D4F8EC150A6940
:103B600069469047054614E0A078D4F8EC154A69F8
:103B70006946904705460CE0A078D4F8EC158A69B0
:103B800069469047054604E031462046FFF750FE5F
:103B9000F8BD00BF0EE031462046FFF749FEF7E7CB
:103BA00031462046FFF744FEF2E731462046FFF754
:103BB0003FFEEDE700BFBDF8000088B1F08878B1A6
:103BC000F088BDF80010884202DDBDF8000000E07A
:103BD000F0880090BDF8002029462046FFF749FEF6
:103BE00000BFD5E70146002002E0421CD0B2491CCC
:103BF0000A78002AF9D17047024601EB810302F5E9
:103C00005D7000EBC300806980B2704770B50446F8
:103C10000D464FF48970005D022802D0032813D1AD
:103C200000E000BF01200C4908604FF48C7000597F
:103C300020B10846006840F00200086002220649F0
:103C40002046FFF716FE04E029462046FFF7F0FD68
:103C500000BF00BF70BD0000780100202DE9F041D9
:103C600004460D461746002604B32046FFF7BAFF68
:103C7000022101EB400038803888C2B23046711C06
:103C8000CEB22A5403223046711CCEB22A540AE026
:103C900014F8012B3046711CCEB22A540022304653
:103CA000711CCEB22A5420780028F1D1BDE8F081F1
:103CB0002DE9F0412DED028B04460F4615461E46B8
:103CC0009DED088A204600F0FDFC2046FFF7ADFE82
:103CD000C4F8E46504F5BD6080ED008AC4F8EC55D5
:103CE00039462046FDF74AF8D4F8E81508688047B9
:103CF000204600F0D1FCBDEC028BBDE8F08110B590
:103D00000446D4F8E405016A20468847002010BD27
:103D100010B50446D4F8E405416A204688470020DF
:103D200010BD70B504460D4629462046FDF7BAFC85
:103D3000002070BD70B504460D4629462046FDF7AB
:103D4000D9FC002070BD70B504460D468121204687
:103D5000FCF73CFC01212046FCF738FC2046FDF72F
:103D6000EBFC002070BD00000246202008800148C6
:103D7000704700001801002070B504460D46294622
:103D80002046FFF7E0FF0223402281212046FCF776
:103D900077FC0223402201212046FCF771FC2046DB
:103DA000FDF7D0FC002070BD70B505460C462078AC
:103DB00010F0600049D0202870D16078FE2802D031
:103DC000FF283AD125E06088E0B9E088012819D1C0
:103DD000207800F08000802814D13A490968886969
:103DE00080473949087008460078002804DD012220
:103DF0002846FFF73EFD0BE021462846FFF718FD59
:103E0000022070BD21462846FFF712FD0220F8E788
:103E100019E0608850B9E08840B9207800F080004F
:103E2000802803D02846FDF7B1FC05E0214628464E
:103E3000FFF7FEFC0220E4E705E021462846FFF7F5
:103E4000F7FC0220DDE700BF39E0607801280ED0E2
:103E50000A2802D00B282FD105E001221B49284651
:103E6000FFF707FD28E060881849087024E0A08863
:103E7000C1B22846FCF7F2FBA088C1B22846FCF785
:103E8000A5FBA08800F08000802808D1A088C1B2DE
:103E9000022340222846FCF7F3FB07E00EE0A0884F
:103EA000C1B2022340222846FCF7EAFBA088C1B237
:103EB0002846FDF7D9FB00BF00BF00E000BF00BFF0
:103EC00000209EE7A80000203801002039010020D2
:103ED0007CB505460024284601F0F4F9002875D089
:103EE000284601F0FAF90190019808B900207CBD3C
:103EF0000198C0F3C04018B12846FCF74BFD0443BD
:103F00000198C0F3804018B12846FCF7A1FC044397
:103F10000198C0F3400050B100200090009820F0BC
:103F20000200801C00900098E968486100BF019879
:103F3000C00F03D02846FCF7ADFD04430198C0F341
:103F4000C02018B12846FCF747FE04430198C0F38F
:103F5000C00018B12846FCF729FE04430198C0F3BD
:103F6000001018B12846FCF7C9FD04430198C0F3BE
:103F7000003018B12846FCF77FFE04430198C0F3D7
:103F8000403018B12846FCF730FC04430198C0F3D8
:103F9000005018B12846FCF73FFF04430198C0F3D6
:103FA000405018B12846FCF74DFF04430198C0F378
:103FB000807018B12846FCF787FF04430198C0F3CE
:103FC000800018B12846FCF753FF044320468EE7D3
:103FD00090F8CC250A7090F8CD254A7090F8CE352F
:103FE00090F8CF2503EB02224A8090F8D03590F864
:103FF000D12503EB02228A8090F8D23590F8D325A0
:1040000003EB0222CA80CB884FF4A0721350012325
:1040100040F211121354704710B504460023402299
:1040200019462046FCF72CFB002340228021204625
:10403000FCF726FB01214FF489700155A078D4F8D4
:10404000E82551688847002010BD10B50446D4F813
:10405000E8150869804740F21310015D401E0155C4
:1040600003210155002010BD01460348026808697C
:1040700042600020704700006C01002010B504462B
:10408000D4F8E405C06920B1D4F8E405C16920463C
:104090008847002010BD70B504460D46A88818BB9F
:1040A000E88808BB688800F07F064FF48970005DDF
:1040B000032804D129462046FFF7BAFB18E04FF445
:1040C0008A70065531462046FCF737FB2046FFF73D
:1040D000E7FB26B102214FF48970015508E0012168
:1040E0004FF48970015503E029462046FFF7A0FBF5
:1040F00070BD70B504460D46D4F8E4052946026843
:1041000020469047D4F8E81588688047002070BDA5
:1041100070B504460D466888304908700846007836
:10412000012804DD29462046FFF782FB55E04FF4C5
:104130008970005D022802D0032848D117E0274883
:10414000007880B12548007884F8100103214FF4ED
:1041500089700155214801782046FFF7CAFF2046A3
:10416000FFF79EFB02E02046FFF79AFB34E01B4876
:10417000007880B902214FF4897001551748007802
:1041800084F81001154801782046FFF704FB20460B
:10419000FFF786FB1AE094F810011049097888426D
:1041A00011D094F810112046FFF7F5FA0B4800786B
:1041B00084F81001094801782046FFF79AFF20464D
:1041C000FFF76EFB02E02046FFF76AFB04E029469A
:1041D0002046FFF72DFB00BF00BF70BD7C01002013
:1041E000F8B504460D460026688801280DD1012146
:1041F0004FF48C700151D4F8E405294682682046BA
:1042000090472046FFF74CFB3BE06888022838D1F6
:10421000A88810F0FF0F34D1206940680090A8886A
:104220000612062E22D2DFE806F02103090F151B25
:10423000009820F070001030009017E0009820F0F7
:1042400070002030009011E0009820F070003030B5
:1042500000900BE0009820F070004030009005E0E6
:10426000009820F070005030009000BF00BF05485B
:104270000099016001214FF48B7001552046FFF732
:104280000FFBF8BD6C0100201CB5044669462046B2
:10429000FFF79EFE9DF8000010F01F0004D00128DB
:1042A00007D002280FD109E06946204600F016F831
:1042B00011E06946204600F0FBF80CE06946204614
:1042C00000F046F807E09DF8000000F0800120466D
:1042D000FCF741FA00BF00BF00201CBD70B50546C9
:1042E0000C46002660780A2829D2DFE800F019235E
:1042F000281E280A0528140F21462846FFF7E0FB50
:1043000022E021462846FFF7C6FE1DE0214628464A
:10431000FFF7FEFE18E021462846FFF7A7FB13E053
:1043200021462846FFF772FC0EE021462846FFF79B
:1043300057FF09E021462846FFF738FA04E02146F6
:104340002846FFF775FA00BF00BF304670BD000079
:104350002DE9F04105460E460027B088C4B27078BA
:10436000002857D001282BD0032875D14FF489702D
:10437000405D022802D003281BD107E02CB1802C1D
:1043800003D021462846FCF7E6F917E0708830B9DB
:104390002CB1802C03D021462846FCF7DCF9D5F857
:1043A000E40531468268284690472846FFF778FAA8
:1043B00004E031462846FFF73BFA00BF00BF70E03B
:1043C0004FF48970405D022802D003281BD107E01A
:1043D0002CB1802C03D021462846FCF7BCF917E00D
:1043E000708878B95CB1802C09D021462846FCF74A
:1043F00012F9D5F8E40531468268284690472846E8
:10440000FFF74EFA04E031462846FFF711FA00BFE5
:1044100000BF46E04FF48970405D022802D00328B7
:1044200037D107E02CB1802C03D021462846FCF779
:1044300092F933E004F08000802812D104F07F006C
:1044400000EB800105F58E7000EBC100807820B193
:1044500001201649086016E022E000201349086098
:1044600011E014F0800F0ED104EB840105F55D70AE
:1044700000EBC100807818B101200C49086002E00F
:1044800000200A490860022208492846FFF7F1F98E
:1044900004E031462846FFF7CBF900BF00BF00E03B
:1044A00000BF00BF3846BDE8F08100007001002069
:1044B00070B504460D4600264FF48970005D032850
:1044C00015D1A888C0B201280CDCD4F8E40529462F
:1044D000826820469047E88840B93EB92046FFF7F9
:1044E000DFF903E029462046FFF7A2F904E0294658
:1044F0002046FFF79DF900BF00BF304670BD10B5E4
:1045000004464FF48970015D401C01550421401E92
:104510000155D4F8E815C8688047002010BD000098
:1045200070B504460D462CB92A46064906A0FFF789
:1045300095FB04E02A46034903A0FFF78FFB0148DF
:1045400070BD0000E82000204D534320436F6E668D
:1045500069670000704770470246122008800148D2
:104560007047000068000020704710B1012802D198
:1045700000E001E000E000BF00BF704770477047F7
:104580007047000070B504460D462CB92A4606490E
:1045900006A0FFF763FB04E02A46034903A0FFF7E8
:1045A0005DFB014870BD0000E82000204D53432012
:1045B000496E7465726661636500000002460420FE
:1045C00008800148704700008400002070B505464F
:1045D0000C462246024903A0FFF740FB004870BD8D
:1045E000E820002053544D6963726F656C656374F5
:1045F000726F6E696373000070B504460D462CB986
:104600002A46064906A0FFF729FB04E02A4603498B
:1046100009A0FFF723FB014870BD0000E82000203F
:104620004D6173732053746F7261676520696E20EA
:104630004853204D6F6465004D6173732053746F50
:104640007261676520696E204653204D6F64650076
:1046500070B504460D462CB92A46064906A0FFF758
:10466000FDFA04E02A46034907A0FFF7F7FA0148DC
:1046700070BD0000E8200020303030303030303065
:1046800030303141000000003030303030303030D8
:10469000303031420000000038B504464FF4C060AD
:1046A000FDF70EF943208DF8000001208DF8010080
:1046B00003208DF8020001208DF803006846FDF705
:1046C000C3F838BD1CB5044601210846FDF70CF9B6
:1046D0004FF4C050009003208DF8050002208DF8A3
:1046E000040000208DF806008DF8070069460B488D
:1046F000FCF73CFE0A220B210848FCF77FFE0A2249
:104700000C210648FCF77AFE01218803FDF70CF91D
:1047100001218020FDF7F8F81CBD000000000240D8
:1047200010B504464FF47A7104FB01F000F001F873
:1047300010BD0022C0EB0013D90000BF531C1A4665
:104740008B4200D97047F9E73EB5044600250020AA
:10475000029001900090207A01283DD1E068806BA2
:104760000190019820F480300190607A28B101987E
:1047700020F4801000F5801001900198E1688863B2
:1047800000200290E068C0680290029820F040008B
:104790000290029820F480000290029820F40030E9
:1047A0000290029820F4002002900298E168C8600C
:1047B000204600F05BF9E07801283DD1009820F018
:1047C0001E000A300090009820F020002030009059
:1047D0000098E16888602FE0E068C0680290029865
:1047E00020F04000403002900298E168C860204606
:1047F00000F03CF900200190019820F4803000F591
:1048000080300190019820F4802000F580200190F4
:10481000019820F4002000F500200190607A28B172
:10482000019820F4801000F5801001900198E16853
:1048300088631420FFF774FFE07801280FD1E06847
:1048400080680090009820F01E000A3000900098C8
:1048500020F02000203000900098E1688860284611
:104860003EBD70B588B00446002600200790069033
:104870000590049003900021D4F80C010160206998
:1048800000680690069820F4C050069006992069AA
:104890000160E07A01283DD10321204600F006FDA9
:1048A0008020E1684862059880B200F5800005909C
:1048B00005986FF30F00803005900598E1688862D5
:1048C000059800EB1041049861F30F0004900498E0
:1048D00080B200F5000004900498E168C1F804017A
:1048E000049800EB104161F30F000490049880B22B
:1048F00004900499E068C0F80811049800EB104196
:1049000061F30F000490049880B204900499E06869
:10491000C0F80C111021204600F07EFC204600F06B
:1049200055FC00212069016120694161491E20690F
:10493000816100212069C16100252CE004F118008B
:1049400050F82500006807900798C00F0ED000208F
:104950000790079820F0804000F18040079007986A
:1049600020F0006000F10060079001E00020079057
:1049700004F1180050F8250007990160002104F1A6
:10498000180050F825000161FF2104F1180050F8CB
:10499000250081606D1C6078A842CFD800252CE0EE
:1049A00004F1540050F82500006801900198C00FF0
:1049B0000ED000200190019820F0804000F180404E
:1049C0000190019820F0006000F10060019001E08A
:1049D0000020019004F1540050F825000199016075
:1049E000002104F1540050F825000161FF2104F179
:1049F000540050F8250081606D1C6078A842CFD823
:104A000000200390039820F4807000F580700390DC
:104A10002069006903998843084321690861E078A7
:104A200001281DD100200290029820F00100401CB6
:104A30000290029820F00200801C0290402102980F
:104A400061F38A000290029820F4803000F58030F3
:104A50000290029861F35940029002992069016323
:104A6000204600F049FB304608B070BDF8B504465A
:104A7000002600250020009000BF0320FFF759FE0C
:104A8000E06800690090681C05461349884201D916
:104A90000020F8BD0098C00FEFD00025009820F04E
:104AA0000100401C00900098E168086100BFE068C8
:104AB00000690090681C05460749884200D904E057
:104AC0000098C0F300000128F1D000BF0320FFF7D9
:104AD00030FE3046DDE70000400D030008B501461A
:104AE000002000220092009A22F00102521C009243
:104AF000CA689268009B9A43CB689A6008BD0EB55D
:104B000001460020002200920A69926802928A6996
:104B100012680192029AC2F3410232B1012A05D011
:104B2000022A09D0032A0DD101E000BF00BF019A7B
:104B30006FF30A02019205E0019A6FF30A02D21C98
:104B4000019200BF00BF019B8A691360009A22F4A2
:104B5000807202F5807200920A695268009B9A4343
:104B60001A430B695A600EBDFEB5024600200024B0
:104B70000025029500954D78012D52D193691D684D
:104B800002951D6900954D6955B9009D25F07F0579
:104B90000095009D25F4C01505F50025009516E04B
:104BA0008E684D69B54207D98D684D618E68009D4C
:104BB00066F30605009504E04E69009D66F3060560
:104BC0000095009D25F4C01505F500250095009D74
:104BD0001D61D578012D06D10F7802F1180555F821
:104BE00027500E696E61029D25F0806505F1806594
:104BF0000295029D25F0004505F100450295029DB4
:104C00001D60D578002D59D14D69002D56D00E78F4
:104C10000125B5402C4315696D6B254316697563F5
:104C20004CE00E7802F1540555F826502D68029597
:104C30000E7802F1540555F826502D6900954D69FE
:104C40005DB98E68009D66F306050095009D25F40C
:104C5000C01505F5002500950CE08D684D618E6846
:104C6000009D66F306050095009D25F4C01505F529
:104C7000002500950F7802F1540555F82750009E45
:104C80002E61D578012D06D10F7802F1540555F823
:104C900027500E696E61029D25F0806505F18065E3
:104CA0000295029D25F0004505F1004502950F781B
:104CB00002F1540555F82750029E2E60FEBD0EB538
:104CC00000210191019921F04041A1F18041019120
:104CD000019921F4C01101F500210191019921F000
:104CE0007F0118310191019A416D0A61C178012952
:104CF00015D10021009100F2CC51426D5161416DFE
:104D000009680091009921F0004101F100410091F2
:104D10004FF080210091009A416D0A6000BF0EBDE6
:104D20003CB5024600200024019400944C78012CEC
:104D30000CD10D7802F1180454F825300D780124B7
:104D4000AC40009D64F30F0500950BE00D7802F177
:104D5000540454F825300D780124AC40009D64F3D0
:104D60001F4500951C680194019CC4F3C034E4B94C
:104D70008D68019C65F30A040194CD78019C65F36C
:104D800093440194CD88019C65F399540194019C4E
:104D900024F0805404F180540194019C24F40044D4
:104DA00004F500440194019C1C601469E469009DB1
:104DB0002C431569EC613CBD38B503460020002446
:104DC00000944C78012C05D10D7803F1180454F8A7
:104DD000252004E00D7803F1540454F825201468CC
:104DE0000094009C24F400140094CC78032C02D08E
:104DF000CC78022C05D1009C24F0805404F180541E
:104E00000094009C146038BD3CB50246002000248C
:104E1000019400944C78012C0CD10D7802F1180407
:104E200054F825300D780124AC40009D64F30F0543
:104E300000950BE00D7802F1540454F825300D78FC
:104E40000124AC40009D64F31F450095019C24F4AF
:104E500000440194019C1C601469E469009DAC430A
:104E60001569EC613CBD38B503460A4600200024B4
:104E700000945478012C18D1157803F1180454F8D3
:104E800025100C680094009CE40F05D0009C24F0D1
:104E9000804404F180440094009C24F4001404F540
:104EA00000140094009C0C600EE0157803F154048B
:104EB00054F825100C680094009C24F4001404F5A8
:104EC00000140094009C0C6038BDFEB505460C46ED
:104ED00000260027002002900190607801287ED1F2
:104EE000217805F1180050F821000068029021781F
:104EF00005F1180050F8210000690190606948B977
:104F000001986FF3120001900121019861F3DC40D8
:104F1000019017E06169019861F3120001906069E6
:104F2000401EA1680844B0FBF1F1019861F3DC4038
:104F30000190E078012805D1019820F0C04000F1EF
:104F400000500190227805F1180050F822000199D4
:104F50000161E878012807D1227805F1180050F89E
:104F60002200216941610DE0E07801280AD06069E2
:104F700040B12178012000FA01F72869406B3843DD
:104F800029694863E078012815D128698068009074
:104F90000098C0F30D2010F0010F06D1029820F008
:104FA000005000F10050029005E0029820F080507F
:104FB00000F180500290029820F0806000F1806043
:104FC0000290029820F0004000F100400290227808
:104FD00005F1180050F822000299016000E00AE093
:104FE000E07801286CD1606983B222782846E168B4
:104FF00000F03DFA64E0217805F1540050F82100FA
:1050000000680290217805F1540050F821000069F1
:105010000190606950B9A168019861F31200019094
:105020000121019861F3DC40019013E0A068401E6B
:1050300061690844A168B0FBF1F1019861F3DC40BB
:1050400001900198C0F3C940A1684843019960F3F9
:1050500012010191227805F1540050F822000199C3
:105060000161E878012806D1227805F1540050F852
:10507000220021694161E07801280ED1607930B1C8
:10508000029820F0005000F10050029005E00298D4
:1050900020F0805000F180500290029820F0806053
:1050A00000F180600290029820F0004000F1004082
:1050B0000290227805F1540050F822000299016014
:1050C0003046FEBD08B500210091491EC2685160FE
:1050D0006FF08041C2685161009921F0004101F1F7
:1050E00000410091009921F4006101F500610091F7
:1050F0000099C268916108BD38B5044600250020BA
:105100000090E16888616FF08040E1684861204666
:10511000FFF7D8FFE07820B9009820F01000103099
:105120000090009820F4006000F500600090009866
:1051300020F4805000F580500090009820F400503A
:1051400000F500500090009820F4802000F58020A9
:105150000090009820F4002000F5002000900098B6
:1051600020F0080008300090009820F4801000F52E
:1051700080100090009820F4001000F500100090BE
:10518000009820F0804000F180400090009820F0CE
:105190000400001D0090E06880690099884308437E
:1051A000E1688861284638BD08B501460020002224
:1051B0000092009A22F00102521C0092CA68926882
:1051C000009B1A43CB689A6008BD0000F8B50446FE
:1051D0000026002500200090009820F010001030DC
:1051E00000900098E168086100BFE06800690090E5
:1051F000681C05460749884200D904E00098C0F3BE
:1052000000100128F1D000BF0320FFF792FA3046CA
:10521000F8BD0000400D0300F8B504460D46002718
:10522000002600200090009820F020002030009000
:10523000009865F38A1000900098E168086100BF4B
:10524000E06800690090701C06460749884200D952
:1052500004E00098C0F340100128F1D000BF032003
:10526000FFF767FA3846F8BD400D030008B5014660
:1052700000200A6992680092009AC2F3410232B19A
:10528000012A06D0022A07D0032A07D102E0032010
:1052900004E000BF022001E0012000BF00BF08BD04
:1052A0000146C868406900F00100704708B502690E
:1052B00012680092009A61F301020092009B026959
:1052C000136008BD00B502461046FFF7E9FF01284C
:1052D00001D0012000BD0020FCE701460020CA6883
:1052E0005069CA689269104070470146086982692E
:1052F0000869C069024090B2704701460869826936
:105300000869C0690240100C7047024602F154035C
:1053100053F82130986813695B6918407047F0B5FD
:1053200003460024D01CC71700EB9777BD10D3F8B5
:10533000D06000BF03E030680860641C091DAC4207
:10534000F9D30846F0BD000030B502468C46002374
:1053500000200024D4700124947040249480BCF177
:10536000010F0CD14FF0A0430124D4720824147013
:10537000042454709C15D480022414720CE0BCF1F7
:10538000000F09D1254B0024D4720C24147006247C
:1053900054704FF4A064D480D36003F500641461AA
:1053A000002110E003F5106404EB411502F118042C
:1053B00044F8215003F5306404EB411502F1540424
:1053C00044F82150491C54788C42EBD803F5806492
:1053D00054614034C2F8CC40002108E003F5A064D9
:1053E00004EB411502F1900444F82150491C147853
:1053F0008C42F3D8002108E003F5805404EB01351A
:1054000002F1D00444F82150491C14788C42F3D89E
:1054100003F56064C2F80C4130BD00000000044098
:10542000F8B504460D460026E068C0680090009874
:1054300020F000500090009820F080400090012D56
:1054400006D1009820F0005000F10050009006E0D6
:105450002DB9009820F0804000F180400090009825
:10546000E168C8603220FFF75BF93046F8BD2DE9EE
:10547000F04104460026E078B0B900270020DD1C8A
:105480004FEAE57805EB98784FEAA80704F1D005D4
:1054900055F822C000BF04E00D68CCF80050401C55
:1054A000091DB842F8D300BF3046BDE8F08110B501
:1054B000044640F225512068FEF7A9F8E0B12068C3
:1054C000FEF760F9E28AA1688854E08A401C80B245
:1054D000E082E189884201DB0020E082608BE18983
:1054E000884202DA608B401C6083608B012803D104
:1054F000606A08B1606A804740F227712068FEF751
:1055000086F808B3A08A60B9002240F227712068AB
:10551000FEF7A9F8012240F226612068FEF7A3F801
:1055200037E0638A6268D15C2068FEF730F9608AF0
:10553000401C80B26082A189884201DB0020608229
:10554000A08A401EA08224E040F226612068FEF777
:105550005EF8F0B1A08A50B9002240F226612068BE
:10556000FEF781F8206AA0B1206A804711E0638AC3
:105570006268D15C2068FEF70AF9608A401C80B23C
:105580006082A189884201DB00206082A08A401EDF
:10559000A08210BD0A480B4908600B4848600B48C0
:1055A00088604FF480608881C8810020088248822A
:1055B000C882088348838882C8610862486270474D
:1055C00000100140B0010020D8010020D8050020C3
:1055D00000BFFEE702E008C8121F08C1002AFAD186
:1055E00070477047002001E001C1121F002AFBD163
:1055F000704710B500F052F800F002F810BD00003E
:1056000070B5002016E0002100EB40021F4B03EBB9
:105610008202516000EB400203EB8202916000EBDA
:10562000400203EB8202517000EB400203F82210AB
:10563000411CC8B20428E6DB154909684FF47A73A7
:10564000B1FBF3F2B2F1807F00D31DE022F07F4185
:10565000491E4FF0E023596159170F23002907DA3B
:105660001C07260E0B4C01F00F052D1F665503E09D
:105670001C07250E084C655400BF00214FF0E023A5
:1056800099610721196100BF70BD000080010020F1
:105690003800002018ED00E000E400E010B5FFF74E
:1056A00079FFFBF701FFFAF77FFF10BD416851B1A9
:1056B0004168491E416006D10121417001780129EC
:1056C00001D1816841607047FFF793FF00F002F855
:1056D00000BFFEE708B50448044B054A01210090CD
:1056E0000448FEF7E5FA08BDB4000020EC000020F5
:1056F0004C000020A40A0020008002021F000000CD
:1057000053544D20202020206D6963726F53442034
:10571000466C617368202020312E30300000000379
:105720000080830000000000000000000600000070
:105730000000000054570008000000208001000015
:10574000840200082C58000880010020A85F000097
:10575000E4550008012C2D01020304041506070876
:1057600009AC7A030A1829141359451B08BD041AF9
:10577000CD041AF9041351461B0821081A85041395
:10578000120132021640830420571A02324C010AD9
:1057900006121201170403090455331B0815041AD5
:1057A00069041A9D041AA3041AD9041A510413F89F
:1057B0005623088882201A81501A6B041A55041A3D
:1057C0007F041A7D041A57041A6904011C13793DD9
:1057D0001B0847041AA904811A230C9A3510411A90
:1057E0006910140902202008010104C032090420B4
:1057F0000B020806500507058102402C070501072A
:10580000411395391408C5381C0889428412401B7D
:1058100008190413FF442B084B08123C1B081148BD
:0C58200013313A1B0849048B3C01C0C145
:040000050800018965
:00000001FF
